:0300000002052CCA
:0C052C00787FE4F6D8FD7581310205737C
:1006B2003F065B4F666D7D077F6F777C395E797190
:10064300012600012700012800012900012A0001D9
:100653002B00011900011A00011B00011C00011DE0
:1006630000011E00022000000222000002240000FC
:10067300012C00022E0000023000000118000216B7
:080683000000012DFF011FFF23
:10047200758921758CF4758A30758D38758B38D2F3
:10048200BBC2B9D288D2AFD2ABD2A9D2A8D28CD2B7
:100492008EE52DF4705220B0137F0AFE12068C20D6
:1004A200B00A0518E518B40403E4F51830B0FD20CD
:1004B200B1367F0A7E0012068C20B129E51824FE8F
:1004C20060111460182402701C0521E521701605C4
:1004D2002080120523E523700C052280080525E5FE
:1004E200257002052430B1FDE52D640170A320B012
:1004F200127F0AFE12068C20B006E51FF404F51FD7
:1005020030B0FD20B18B7F0A7E0012068C20B11222
:10051200E51FB4FF0DE4F510F511F512F513F5140E
:0A052200F51530B10302049380F8D0
:03000B0002001ED2
:10001E00C0E0C0F0C083C082C0D075D000E52DF422
:10002E0060030202117580FF758CF4758A30052C01
:10003E00E52CB40603752C0075A0000517E51770A6
:10004E00020516B42C0BE516B401067516007517CD
:10005E0000E52C1460611470030201091470030290
:10006E00014B14700302018F1470030201D024059A
:10007E006003020211D3E5179496E516648094800E
:10008E0050047F0180027F00E518B403047E0180D6
:10009E00027E00EF5E60057580FF8016AF2BEF339A
:1000AE0095E0FE74B22FF58274063EF583E493F468
:1000BE00F580D2A0020211D3E5179496E51664805E
:1000CE00948050047F0180027F00E518B403047E03
:1000DE000180027E00EF5E60057580FF8016AF2AFC
:1000EE00EF3395E0FE74B22FF58274063EF583E48D
:1000FE0093F4F580C287D2A1020211D3E51794962C
:10010E00E5166480948050047F0180027F00E5181C
:10011E00B402047E0180027E00EF5E60057580FFF2
:10012E008016AF29EF3395E0FE74B22FF582740678
:10013E003EF583E493F4F580D2A2020211D3E517C3
:10014E009496E5166480948050047F0180027F00AF
:10015E00E518B402047E0180027E00EF5E60057534
:10016E0080FF8016AF28EF3395E0FE74B22FF58234
:10017E0074063EF583E493F4F580C287D2A302029F
:10018E0011D3E5179496E5166480948050047F0190
:10019E0080027F00E518B401047E0180027E00EF2C
:1001AE005E60057580FF8016AF27EF3395E0FE7415
:1001BE00B22FF58274063EF583E493F4F580D2A453
:1001CE008041D3E5179496E5166480948050047FA1
:1001DE000180027F00E518B401047E0180027E00DA
:1001EE00EF5E60057580FF8016AF26EF3395E0FE5B
:1001FE0074B22FF58274063EF583E493F4F580C253
:10020E0087D2A5E52D6401600302033A7580FF7560
:10021E008CF4758A30052CE52CB40603752C00750C
:10022E00A000AE10AF117C007D0A1205B88D19AE7C
:10023E0010AF117C007D0A1205B88F1AAE12AF13E3
:10024E007C007D0A1205B88D1BAE12AF137C007DAB
:10025E000A1205B88F1CAE14AF157C007D0A12056C
:10026E00B88D1DAE14AF157C007D0A1205B88F1E19
:10027E00E52C14603114604A14606114607A1470B5
:10028E00030203202405600302033AAF1EEF3395E9
:10029E00E0FE74B22FF58274063EF583E493F4F516
:1002AE0080D2A002033AAF1DEF3395E0FE74B22F59
:1002BE00F58274063EF583E493F4F580C287D2A1ED
:1002CE00806AAF1CEF3395E0FE74B22FF582740690
:1002DE003EF583E493F4F580D2A28050AF1BEF334A
:1002EE0095E0FE74B22FF58274063EF583E493F426
:1002FE00F580C287D2A38034AF1AEF3395E0FE7437
:10030E00B22FF58274063EF583E493F4F580D2A401
:10031E00801AAF19EF3395E0FE74B22FF582740692
:10032E003EF583E493F4F580C287D2A5D0D0D08277
:07033E00D083D0F0D0E032C3
:03001B0002034598
:10034500C0E0C0F0C0D075D008052FE52F700205BC
:100355002E64A07004E52E640F6003020404F52EDC
:10036500F52F0521E52170020520D3943BE5206496
:10037500809480400E7520007521000523E52370CB
:10038500020522D3E523943BE52264809480400E48
:100395007522007523000525E52570020524D3E5A2
:1003A500259417E5246480948040067524007525FE
:1003B50000AE20AF217C007D0A1205B88D26AE2047
:1003C500AF217C007D0A1205B88F27AE22AF237CB2
:1003D500007D0A1205B88D28AE22AF237C007D0A68
:1003E5001205B88F29AE24AF257C007D0A1205B809
:1003F5008D2AAE24AF257C007D0A1205B88F2BE52A
:100405001F640170610531E53170020530642845CE
:10041500307053F530F5310511E51170020510D333
:100425009463E51064809480400E7510007511008A
:100435000513E51370020512D3E513943BE5126429
:10044500809480400E7512007513000515E5157032
:10045500020514D3E515943BE514648094804006A9
:0D046500751400751500D0D0D0F0D0E03235
:0300030002000EEA
:0B000E00C0E0E52DF404F52DD0E03239
:10068C00E4FDFCC3ED9FEE6480F8EC64809850159B
:10069C00E4FBFA0BBB00010AEB647F4A70F50DBD5D
:0506AC0000010C80DEDE
:0106B1002226
:10053800020472E493A3F8E493A34003F68001F263
:1005480008DFF48029E493A3F85407240CC8C333C4
:10055800C4540F4420C8834004F456800146F6DF93
:10056800E4800B0102040810204080900643E47EDA
:10057800019360BCA3FF543F30E509541FFEE49388
:10058800A360010ECF54C025E060A840B8E493A34F
:10059800FAE493A3F8E493A3C8C582C8CAC583CA7A
:1005A800F0A3C8C582C8CAC583CADFE9DEE780BE32
:01068B00006E
:1005B800C2D5EC30E709B2D5E4C39DFDE49CFCEE5E
:1005C80030E715B2D5E4C39FFFE49EFE1205EEC3E3
:1005D800E49DFDE49CFC80031205EE30D507C3E4DE
:0605E8009FFFE49EFE22CD
:1005EE00BC000BBE0029EF8DF084FFADF022E4CCF1
:1005FE00F875F008EF2FFFEE33FEEC33FCEE9DECBA
:10060E00984005FCEE9DFE0FD5F0E9E4CEFD22EDFF
:10061E00F8F5F0EE8420D21CFEADF075F008EF2F49
:10062E00FFED33FD4007985006D5F0F222C398FD3A
:05063E000FD5F0EA22D7
:00000001FF
